:020000040800F2
:1000000000000120450E0008850300088D0300084C
:100010008F0300089103000893030008000000000C
:100020000000000000000000000000009503000830
:100030009703000800000000990300089B030008D4
:100040008D0E00088D0E00088D0E00088D0E000824
:100050008D0E00088D0E00088D0E00088D0E000814
:100060008D0E00088D0E00088D0E00088D0E000804
:100070008D0E00088D0E00088D0E00088D0E0008F4
:100080008D0E00088D0E00088D0E00088D0E0008E4
:100090008D0E00088D0E00088D0E00088D0E0008D4
:1000A0008D0E00088D0E00088D0E00088D0E0008C4
:1000B0008D0E00088D0E00089D0300088D0E0008AF
:1000C0008D0E00088D0E00088D0E00088D0E0008A4
:1000D0008D0E00088D0E00088D0E00088D0E000894
:1000E0008D0E00088D0E00088D0E00088D0E000884
:1000F0008D0E00088D0E00088D0E00088D0E000874
:100100008D0E00088D0E00088D0E00088D0E000863
:100110008D0E00088D0E00088D0E00088D0E000853
:100120008D0E00088D0E00088D0E00088D0E000843
:1001300000000000000000000000000000000000BF
:1001400000000000000000000000000000000000AF
:10015000000000000000000000000000000000009F
:10016000000000000000000000000000000000008F
:10017000000000000000000000000000000000007F
:10018000000000000000000000000000000000006F
:10019000000000000000000000000000000000005F
:1001A000000000000000000000000000000000004F
:1001B000000000000000000000000000000000003F
:1001C000000000000000000000000000000000002F
:1001D000000000000000000000000000000000001F
:0401E0005FF8E0F1F3
:1001E40010B5054C237833B9044B13B10448AFF36D
:1001F40000800123237010BD3C0400200000000097
:10020400B80F000808B5034B1BB103490348AFF30B
:10021400008008BD0000000040040020B80F000862
:1002240082B0064B9A6942F004029A619B6903F01A
:1002340004030193019B02B0704700BF0010024009
:1002440030B591B0002409940B940C940194029459
:10025400039404940594012206924FF48033079387
:1002640008940A9202250D950E934FF4E0130F9310
:1002740006A800F029F90F230193029503944FF483
:10028400806304930594294601A800F061FB00F003
:1002940023FB11B030BD08B500F088F8FFF7D0FF9C
:1002A400FFF7BEFFFEE7000008B50268034B9A4261
:1002B40000D008BD00F08CF8FBE700BF0008004048
:1002C40082B00E4B9A6942F001029A619A6902F077
:1002D40001020092009ADA6942F08052DA61DB6925
:1002E40003F080530193019B054A536823F0E063B4
:1002F40043F00073536002B0704700BF0010024027
:100304000000014000B589B0014600221E2000F023
:1003140083F81E2000F0B4F8154BDA6942F00402A9
:10032400DA61DB6903F004030193019B02A903A8CA
:1003340000F0DAFB00F0C8FB43000E48A0FB0323E7
:100344009B0C013B0C480D4A026040F2E732C2604C
:10035400436000230361836000F044FD18B1012071
:1003640009B05DF804FB044800F0F2FBF8E700BFB5
:100374000010024083DE1B435804002000080040A4
:1003840008B500F0D1FB08BDFEE7FEE7FEE7FEE797
:10039400704770477047704708B5024800F018FC72
:1003A40008BD00BF580400207047000008B5074A84
:1003B400136843F010031360032000F01BF80020BF
:1003C400FFF7A0FFFFF77CFF002008BD00200240DC
:1003D400034A1168034B1B780B441360704700BF3A
:1003E400A004002004000020014B1868704700BFDF
:1003F400A0040020074AD36823F4E0631B041B0C09
:10040400000200F4E060034343F0BF6343F40033AD
:10041400D360704700ED00E030B4174BDB68C3F3E2
:100424000223C3F10704042C28BF04241D1D062D38
:1004340018D9033B4FF0FF3505FA04F421EA04010F
:10044400994005FA03F322EA0303194300280BDB5E
:100454000901C9B200F1604000F5614080F8001361
:1004640030BC70470023E5E700F00F000901C9B272
:10047400024B1954F4E700BF00ED00E014ED00E076
:10048400002807DB00F01F02400901239340024AC1
:1004940042F82030704700BF00E100E082B0084B12
:1004A4001B68084AA2FB03235B0A00FB03F30193C6
:1004B40000BF019B5A1E0192002BF9D102B0704774
:1004C40000000020D34D6210002800F0F18170B5C7
:1004D40082B00446036813F0010F2CD0AA4B5B686A
:1004E40003F00C03042B1DD0A74B5B6803F00C0333
:1004F400082B12D06368B3F5803F41D0002B55D14F
:1005040003F1804303F504331A6822F480321A603D
:100514001A6822F480221A6037E09B4B5B6813F45C
:10052400803FE7D0984B1B6813F4003F03D0636807
:10053400002B00F0BF81236813F0020F75D0924B9B
:100544005B6813F00C0F5FD08F4B5B6803F00C03F8
:10055400082B54D02369002B00F089808B4B012297
:100564001A60FFF741FF0546874B1B6813F0020F23
:1005740074D1FFF739FF401B0228F5D903209EE10F
:10058400814A136843F480331360636843B3FFF70D
:100594002BFF05467C4B1B6813F4003FCBD1FFF7C0
:1005A40023FF401B6428F5D9032088E1B3F5A02F6D
:1005B40009D0754B1A6822F480321A601A6822F442
:1005C40080221A60E1E703F18043A3F53C331A6803
:1005D40042F480221A601A6842F480321A60D4E726
:1005E400FFF702FF0546684B1B6813F4003FA2D0D7
:1005F400FFF7FAFE401B6428F5D903205FE1624B44
:100604005B6813F4803FA5D15F4B1B6813F0020FA6
:1006140003D02369012B40F04F815B4A136823F018
:10062400F803616943EAC1031360236813F0080FF8
:1006340032D0A369002B45D0554B01221A60FFF735
:10064400D3FE0546504B5B6A13F0020F21D1FFF72E
:10065400CBFE401B0228F5D9032030E14A4A136837
:1006640023F0F803616943EAC1031360DDE7474BF4
:1006740000221A60FFF7B8FE0546434B1B6813F0CF
:10068400020FD2D0FFF7B0FE401B0228F5D9032099
:1006940015E10120FFF702FF236813F0040F00F0B7
:1006A4009780394BDB6913F0805F1DD1364BDA69D3
:1006B40042F08052DA61DB6903F080530193019BBD
:1006C400012512E0324B00221A60FFF78DFE054629
:1006D4002D4B5B6A13F0020FDED0FFF785FE401B43
:1006E4000228F5D90320EAE000252A4B1B6813F4FD
:1006F400807F11D0E368012B22D0002B38D103F185
:10070400804303F504331A6A22F001021A621A6A5A
:1007140022F004021A6218E01E4A136843F480733C
:100724001360FFF761FE06461A4B1B6813F4807FC3
:10073400E0D1FFF759FE801B6428F5D90320BEE001
:10074400114A136A43F001031362E36873B3FFF7BA
:100754004BFE06460C4B1B6A13F0020F37D1FFF712
:1007640043FE801B41F288339842F3D90320A6E06C
:10077400052B11D0044B1A6A22F001021A621A6A7C
:1007840022F004021A62E0E7001002400000424234
:1007940080044242007000404D4B1A6A42F0040249
:1007A4001A621A6A42F001021A62CEE7FFF71CFECF
:1007B4000646474B1B6A13F0020F08D0FFF714FEDE
:1007C400801B41F288339842F3D9032077E0E5B9DE
:1007D400E369002B72D03E4A526802F00C02082AE8
:1007E40056D0022B17D03B4B00221A60FFF7FCFDBA
:1007F4000446374B1B6813F0007F47D0FFF7F4FD26
:10080400001B0228F5D9032059E0314AD36923F0AB
:100814008053D361DCE72F4B00221A60FFF7E4FD1D
:1008240005462B4B1B6813F0007F06D0FFF7DCFD59
:10083400401B0228F5D9032041E0236AB3F5803F29
:100844001AD023494B6823F47413226A606A024362
:1008540013434B601F4B01221A60FFF7C5FD04468A
:100864001B4B1B6813F0007F0ED1FFF7BDFD001B6F
:100874000228F5D9032022E0154A536823F40033F3
:10088400A1680B435360DCE7002018E0002016E069
:10089400012B16D00E4B5B6803F48031226A91421F
:1008A40011D103F47013626A93420ED1002006E062
:1008B40001207047012002E0012000E0002002B086
:1008C40070BD0120FBE70120F9E70120F7E700BF35
:1008D4000010024060004242014B01221A6070473E
:1008E4004C00424286B0164B0FCB0DF1180C0CE9AC
:1008F4000F0040F20123ADF80430124B5B6803F0A3
:100904000C02082A02D0104806B07047C3F3834291
:10091400624412F8102C13F4803F0CD0094B5B682E
:10092400C3F34043634413F8143C074800FB02F04C
:10093400B0FBF3F0E8E7054800FB02F0E4E700BF92
:10094400E80F00080010024000127A0000093D0080
:10095400002800F0A08070B50D460446524B1B6879
:1009640003F007038B420BD24F4A136823F00703AB
:100974000B431360136803F007038B4240F08D8030
:10098400236813F0020F17D013F0040F04D0474A62
:10099400536843F4E0635360236813F0080F04D0F2
:1009A400424A536843F460535360404A536823F007
:1009B400F003A1680B435360236813F0010F31D097
:1009C4006368012B20D0022B25D0384A126812F01C
:1009D400020F64D035494A6822F0030213434B6086
:1009E400FFF702FD0646314B5B6803F00C036268B7
:1009F400B3EB820F16D0FFF7F7FC801B41F288336C
:100A04009842F0D9032045E0284A126812F4003FC6
:100A1400E0D101203EE0254A126812F0007FD9D1CE
:100A2400012037E0204B1B6803F00703AB420AD9CF
:100A34001D4A136823F007032B431360136803F064
:100A44000703AB422DD1236813F0040F06D0174AD5
:100A5400536823F4E063E1680B435360236813F0A5
:100A6400080F07D0114A536823F46053216943EAFD
:100A7400C1035360FFF736FF0C4B5B68C3F30313EA
:100A84000B4AD35CD8400B4B18600B4B1868FFF72C
:100A940039FC002070BD012070470120FAE70120D5
:100AA400F8E70120F6E700BF0020024000100240F2
:100AB400D00F00080000002008000020014B186837
:100AC400704700BF0000002008B5FFF7F7FF044B94
:100AD4005B68C3F30223034AD35CD84008BD00BF5C
:100AE40000100240E00F00080F2303600B4B5A680C
:100AF40002F0030242605A6802F0F00282605A680F
:100B040002F4E062C2605B68DB0803F4E063036143
:100B1400034B1B6803F007030B607047001002408F
:100B2400002002407047000008B5064B9B6813F094
:100B3400800F00D108BDFFF7F5FF034B80221A7028
:100B4400F8E700BF001002400A100240704700009E
:100B540090F83D30DBB2012B2FD1022380F83D30D9
:100B64000268D36843F00103D3600368154A9342D3
:100B740018D002F50062934214D0B3F1804F11D023
:100B8400A2F5983293420DD002F58062934209D0C7
:100B940002F58062934205D01A6842F001021A609D
:100BA400002070479A6802F00702062A07D01A68E4
:100BB40042F001021A6000207047012070470020B3
:100BC400704700BF002C0140704770477047704762
:100BD40010B5044603681A6912F0020F11D0DA68DE
:100BE40012F0020F0DD06FF002021A610123037795
:100BF40003689B6913F0030F70D0FFF7E6FF00232F
:100C0400237723681A6912F0040F12D0DA6812F0FD
:100C1400040F0ED06FF004021A61022323772368B5
:100C24009B6913F4407F5FD02046FFF7CEFF00237B
:100C3400237723681A6912F0080F12D0DA6812F0C9
:100C4400080F0ED06FF008021A610423237723687B
:100C5400DB6913F0030F4ED02046FFF7B6FF0023E5
:100C6400237723681A6912F0100F12D0DA6812F091
:100C7400100F0ED06FF010021A6108232377236837
:100C8400DB6913F4407F3DD02046FFF79EFF00232D
:100C9400237723681A6912F0010F03D0DA6812F07F
:100CA400010F36D123681A6912F0800F03D0DA6875
:100CB40012F0800F34D123681A6912F0400F03D068
:100CC400DA6812F0400F32D123681A6912F0200F4B
:100CD40003D0DA6812F0200F30D110BDFFF774FF93
:100CE4002046FFF773FF8AE72046FFF76DFF204693
:100CF400FFF76CFF9BE72046FFF766FF2046FFF7F0
:100D040065FFACE72046FFF75FFF2046FFF75EFF75
:100D1400BDE76FF001021A612046FFF7C5FAC1E78B
:100D24006FF080021A61204600F089F8C3E76FF083
:100D340040021A612046FFF74AFFC5E76FF0200220
:100D44001A61204600F07AF8C7E700000368244AD5
:100D5400904212D002F5006290420ED0B0F1804F62
:100D64000BD0A2F59832904207D002F580629042EF
:100D740003D002F58062904203D123F070034A68E5
:100D84001343174A904212D002F5006290420ED0EB
:100D9400B0F1804F0BD0A2F59832904207D002F503
:100DA4008062904203D002F58062904203D123F422
:100DB4004073CA68134323F080034A6913430360F2
:100DC4008B68C3620B688362054B984203D003F5BA
:100DD4000063984201D10B690363012343617047A7
:100DE400002C014040B310B5044690F83D30F3B1F7
:100DF400022384F83D30214651F8040BFFF7A6FF87
:100E0400012384F8463084F83E3084F83F3084F877
:100E1400403084F8413084F8423084F8433084F818
:100E2400443084F8453084F83D30002010BD80F80B
:100E34003C30FFF78BFEDBE70120704770477047BB
:100E4400002103E00B4B5B58435004310A480B4B21
:100E540042189A42F6D30A4A02E0002342F8043BBD
:100E6400084B9A42F9D3FFF79FFA00F00FF8FFF707
:100E740012FA70470C100008000000203C04002007
:100E84003C040020C8040020FEE7000070B50D4EAD
:100E94000D4D761BB61006D0002455F8043B0134E2
:100EA4009847A642F9D1094E094D00F083F8761B04
:100EB400B61006D0002455F8043B01349847A642E6
:100EC400F9D170BD001000080010000808100008D7
:100ED40000100008024B13B1024800F005B8704737
:100EE40000000000F90E0008002301461A461846C7
:100EF40000F01AB838B5084B084D5B1B9C1007D09E
:100F0400043B1D44013C55F804399847002CF9D1A1
:100F1400BDE8384000F054B80C1000080810000870
:100F2400704700BF704700BF2DE9F047DFF880A08D
:100F34000646DAF8000098460F469146FFF7F0FFA0
:100F44001A4B1B68D3F8484124B365681F2D26DC6F
:100F54005EB96B1C0235DAF80000636044F8257052
:100F6400FFF7E0FF0020BDE8F087012304EB8501D3
:100F7400C1F88890D4F88821AB401A43022EC4F8F3
:100F84008821C1F80881E4D1D4F88C211343C4F832
:100F94008C31DEE703F5A674C3F84841D5E7DAF8E7
:100FA4000000FFF7BFFF4FF0FF30DCE7FC0F000845
:100FB40038040020F8B500BFF8BC08BC9E46704752
:0C0FC400F8B500BFF8BC08BC9E467047A2
:100FD00000000000000000000102030406070809E9
:100FE00000000000010203040203040506070809CB
:100FF0000A0B0C0D0E0F1010000000001000002056
:08100000D90E000809020008E6
:04100800E5010008F6
:10100C000024F400010000001000000000000000AB
:10101C0000000000FC02002064030020CC03002030
:10102C0000000000000000000000000000000000B4
:10103C0000000000000000000000000000000000A4
:10104C000000000000000000000000000000000094
:10105C000000000000000000000000000000000084
:10106C000000000000000000000000000000000074
:10107C000000000000000000000000000000000064
:10108C000000000000000000000000000000000054
:10109C000000000000000000000000000000000044
:1010AC000000000000000000000000000000000034
:1010BC000000000000000000010000000000000023
:1010CC000E33CDAB34126DE6ECDE05000B000000E8
:1010DC000000000000000000000000000000000004
:1010EC0000000000000000000000000000000000F4
:1010FC0000000000000000000000000000000000E4
:10110C0000000000000000000000000000000000D3
:0C143C000000000000000000A4040020DC
:0400000508000E459C
:00000001FF
